S00F0000636A5F646173682E7372656349
S113000012C024C023C022C021C020C01FC01EC0F3
S11300101DC01CC01BC01AC019C018C017C016C010
S113002015C014C013C011241FBECFE5D4E0DEBF39
S1130030CDBF10E0A0E6B0E0E8E0F3E002C0059038
S11300400D92AA38B107D9F7D3D05CC1D9CFC598DE
S113005081EE94E00197F1F700C00000C59A83EFA8
S113006091E00197F1F700C00000089598B3282F9C
S11300702F70907F922B98BB92B3807F9F70892BB7
S113008082BBC498C49A84E78A95F1F700C00895A6
S1130090CF93C82F8BE1EADF8C2FE8DFCF9108954F
S11300A0CF93DF93009731F0EC018991882311F00D
S11300B0DDDFFBCFDF91CF910895892B11F08FE025
S11300C001C08EE0D3DF0895883291050CF4E0DF9F
S11300D0089585E1CBDF08950895A0E0B0E0E2E75C
S11300E0F0E0D0C0EC0197FD06C080349F412CF0B5
S11300F0CFE3DFE102C0C0E0D0E08AE090E0C8DFF7
S1130100CE0164E670E0A0D0262F862F6AE090D05E
S1130110C82F80E3D82EDC0E00E3090F822F8695CA
S113012065E086D0192FE12CF12CD0E0EC16FD0609
S113013034F48FE79BDF3FEFE31AF30AF7CFE12FA5
S1130140F0E0E05AFF4F808191DF87E090E09C016E
S11301502C1B3D0BE901E12CF12CEC16FD0631F0D2
S113016080E284DF3FEFE31AF30AF7CF8D2D7EDFC1
S1130170802F7CDFCDB7DEB7E7E0A0C08FE387BB7D
S113018080EF81BB8FEF88BB82BB61DFA2DF87EA90
S113019091E60197F1F700C0000084E067DF80E298
S11301A065DF8EE063DF80E090E072DF85E690E05B
S11301B077DF85E090E06CDF8BE690E071DF84E12F
S11301C090E066DF81E790E06BDF89E190E060DF3B
S11301D087E790E065DF8EE190E05ADF8DE790E0FD
S11301E05FDF83E290E054DF83E890E059DF089515
S11301F0C5DFC0E0D0E0CE0170DF89EF90E0019769
S1130200F1F700C000006996C0349FE1D90799F75F
S1130210CFE3DFE1CE0161DF89EF90E00197F1F7F1
S113022000C000006997CF3F9FEFD90799F7E1CF4E
S1130230991B79E004C0991F961708F0961B881F34
S11302407A95C9F78095089597FB072E16F40094C4
S113025006D077FD08D042D007FC05D03EF4909537
S113026081959F4F0895709561957F4F08952F92C2
S11302703F924F925F926F927F928F929F92AF9232
S1130280BF92CF92DF92EF92FF920F931F93CF937F
S1130290DF93CDB7DEB7CA1BDB0B0FB6F894DEBF16
S11302A00FBECDBF09942A88398848885F846E843C
S11302B07D848C849B84AA84B984C884DF80EE8086
S11302C0FD800C811B81AA81B981CE0FD11D0FB68F
S11302D0F894DEBF0FBECDBFED010895AA1BBB1B72
S11302E051E107C0AA1FBB1FA617B70710F0A61B32
S11302F0B70B881F991F5A95A9F780959095BC0153
S10B0300CD010895F894FFCF2C
S113030820F0F1F2F37631332E3600742031383090
S1130318007020203630006F2031383700206620E6
S10D03283338006D702034320000F9
S9030000FC
